:1000000003308A00402B0000FF00030E8301A10093
:100010000A08A0008A010408A2007708A300780853
:10002000A4007908A5007A08A600831383128B1D0B
:100030001B280B1830288B1E1F280B193328220869
:1000400084002308F7002408F8002508F900260892
:10005000FA0020088A00210E8300FF0E7F0E09009F
:100060008A110A1265288A110A1236280B11E73004
:100070008100BE0803195928A70A2708313C031834
:100080004328A701AA0A2A08093C03184928A90AF3
:10009000AA012908093C03184F28A80AA901280821
:1000A000093C03185528BD0AA8013D08093C031C5A
:1000B000BD01BE08031D6128A701AA01A901A8016D
:1000C000BD010B118A110A121F288316861783128D
:1000D000861F79282F0B79283D08AB002808AC0033
:1000E0002908AD002A08AE00BE0A83160510831247
:1000F0000510831606178312061F8D28300B8D28D6
:100100003D08AB002808AC002908AD002A08AE0065
:10011000BE0A8316851083128510831686168312F5
:10012000861EA128310BA1283D08AB002808AC0091
:100130002908AD002A08AE00BE0A831605118312F5
:100140000511831606168312061EB528320BB52834
:100150003D08AB002808AC002908AD002A08AE0015
:10016000BE0A83168511831285113E08023C031CCA
:10017000BE010B108A110A121F28CD08031DC228C8
:10018000E730CE004D0BC6282130CE004D08023C92
:10019000031DCC28CB30CE004D08033C031DD228D4
:1001A0006B30CE004D08043C031DD8282D30CE0006
:1001B0004D08053C031DDE286E30CE004D08063C80
:1001C000031DE428EE30CE004D08073C031DEA284D
:1001D0002330CE004D08083C031DF028EF30CE0040
:1001E0004D08093C031DF6282F30CE004E08F800BC
:1001F00008000830DA02031C09295A3084008313EE
:100200000310800C00080319092907290000800B3E
:100210000629080083168801831256088800831671
:100220008610831286145508DA00F920831686108A
:10023000831286108316880183125708880083165C
:100240000610831206145408DA00F92083160610EB
:1002500083120610831688018312580888008316BB
:100260000611831206158316081283120816530806
:10027000DA00F9208316061183120611831608127C
:100280008312081283168801831259088800831686
:100290008611831286155208DA00F920831686111A
:1002A0008312861108004730840083130008031965
:1002B00066290230F800F701F70B5C29F80B5B297F
:1002C0009730F700F70B6229800B59290800C3010A
:1002D000C4014514B901BA01BB01BC01451C7A2A0D
:1002E0003908CD00BD207808C0003A08CD00BD20F7
:1002F0007808C1003B08CD00BD207808C2003C084A
:10030000CD00BD207808C3003408CA004308CB00E4
:100310004208CC004108CD004008CE004A0B9F297E
:100320009030D2000730D300D400D5004B08D6005F
:100330004C08D7004D08D8004E08D9000A214A08B9
:10034000023C031DB3290730D2009030D3000730A0
:10035000D400D5004B08D6004C08D7004D08D80073
:100360004E08D9000A214A08033C031DC72907305B
:10037000D200D3009030D4000730D5004B08D6000F
:100380004C08D7004D08D8004E08D9000A214A0869
:10039000043C031DDA290730D200D300D40090308A
:1003A000D5004B08D6004C08D7004D08D8004E08A1
:1003B000D9000A213F173F08831687008312071FC1
:1003C0002C2AC830C70053213408C600460BF62932
:1003D000B90A83160510831205143908013C031865
:1003E000F629B90183160510831205104608023C50
:1003F000031D082ABA0A83168510831285143A0849
:10040000013C0318082ABA0183168510831285104F
:100410004608033C031D1A2ABB0A831605118312E2
:1004200005153B08013C03181A2ABB018316051168
:10043000831205114608043C031D2C2ABC0A8316AE
:100440008511831285153C08013C03182C2ABC0138
:100450008316851183128511BF173F088316870005
:100460008312871F3D2AC830C7005321B40A3408BD
:10047000043C03183D2A0130B400BF163F08831620
:1004800087008312871E792AC830C70053213A0893
:1004900039073B073C07C4004408023C031D622A9D
:1004A000390B542A0130AF003A0B582A0130B00002
:1004B0003B0B5C2A0130B1003C0B602A0130B200DA
:1004C0004510792A83168611831286118316061128
:1004D00083120611831606108312061083168610E7
:1004E000831286100430C600FA30C7005321C60BB1
:1004F000742A6E2945140130B300831686118312C5
:1005000086118316061183120611831606108312B4
:1005100006108316861083128610BF113F088316BB
:100520008700831287158A110A12812BC001C1012D
:10053000C501C008031DAB2A3E08023C031DAA2AC0
:100540002B08C2002C08C3002D08C4002E08C500CB
:100550000130C000992A4208C9004308CA00440873
:10056000CB004508CC004C08CD00BD207808B80071
:100570004B08CD00BD207808B7004A08CD00BD204B
:100580007808B6004908CD00BD207808B500C1083C
:10059000031D2F2B3808C9003708CA003608CB00C6
:1005A0003508CC0083168801831249088800831619
:1005B0008610831286140430F700F70BDD2A000042
:1005C00083168610831286108316880183124A08C8
:1005D000880083160610831206140430F700F70B08
:1005E000EF2A000083160610831206108316880176
:1005F00083124B0888008316061183120615831692
:100600000812831208160430F700F70B052B0000C0
:10061000831606118312061183160812831208121C
:100620008316880183124C08880083168611831272
:1006300086150430F700F70B1B2B0000831686117C
:1006400083128611BF163F08831687008312871E08
:100650002E2BC830C70053210130C100C72AAF017B
:10066000B001B101B201BE01B301C001C101BF11AE
:100670003F0883168700831287118A110A12812B83
:1006800003081F398300AE01B3010130B400BC017F
:10069000BE01FF30BF0083161F149F141F159F114A
:1006A00007309C00831300308500F0308600E03076
:1006B00087008312BF0000308316880085018312F3
:1006C0008501BF113F0883168700831287118316A7
:1006D0000108C03903388100E730831281000B1113
:1006E0008B168B15C0308B048316011383123308CD
:1006F00003197E2B013A0319802B812B6729812B4B
:06070000962A772B63002E
:02400E003A3F37
:00000001FF
;PIC16F877A
;CRC=03E2  CREATED="23-nov-20 14:06"
